{
  "_format": "hh-sol-artifact-1",
  "contractName": "PrivateIdentityRegistry",
  "sourceName": "contracts/PrivateIdentityRegistry.sol",
  "abi": [
    {
      "inputs": [],
      "stateMutability": "nonpayable",
      "type": "constructor"
    },
    {
      "inputs": [
        {
          "internalType": "address",
          "name": "owner",
          "type": "address"
        }
      ],
      "name": "OwnableInvalidOwner",
      "type": "error"
    },
    {
      "inputs": [
        {
          "internalType": "address",
          "name": "account",
          "type": "address"
        }
      ],
      "name": "OwnableUnauthorizedAccount",
      "type": "error"
    },
    {
      "anonymous": false,
      "inputs": [
        {
          "indexed": false,
          "internalType": "ctUint64",
          "name": "identifier",
          "type": "uint256"
        }
      ],
      "name": "Identifier",
      "type": "event"
    },
    {
      "anonymous": false,
      "inputs": [
        {
          "indexed": false,
          "internalType": "address",
          "name": "wallet",
          "type": "address"
        }
      ],
      "name": "NewDid",
      "type": "event"
    },
    {
      "anonymous": false,
      "inputs": [
        {
          "indexed": false,
          "internalType": "address",
          "name": "wallet",
          "type": "address"
        },
        {
          "indexed": false,
          "internalType": "uint256",
          "name": "registrarId",
          "type": "uint256"
        }
      ],
      "name": "NewRegistrar",
      "type": "event"
    },
    {
      "anonymous": false,
      "inputs": [
        {
          "indexed": true,
          "internalType": "address",
          "name": "previousOwner",
          "type": "address"
        },
        {
          "indexed": true,
          "internalType": "address",
          "name": "newOwner",
          "type": "address"
        }
      ],
      "name": "OwnershipTransferStarted",
      "type": "event"
    },
    {
      "anonymous": false,
      "inputs": [
        {
          "indexed": true,
          "internalType": "address",
          "name": "previousOwner",
          "type": "address"
        },
        {
          "indexed": true,
          "internalType": "address",
          "name": "newOwner",
          "type": "address"
        }
      ],
      "name": "OwnershipTransferred",
      "type": "event"
    },
    {
      "anonymous": false,
      "inputs": [
        {
          "indexed": false,
          "internalType": "address",
          "name": "wallet",
          "type": "address"
        }
      ],
      "name": "RemoveDid",
      "type": "event"
    },
    {
      "anonymous": false,
      "inputs": [
        {
          "indexed": false,
          "internalType": "address",
          "name": "wallet",
          "type": "address"
        }
      ],
      "name": "RemoveRegistrar",
      "type": "event"
    },
    {
      "inputs": [],
      "name": "acceptOwnership",
      "outputs": [],
      "stateMutability": "nonpayable",
      "type": "function"
    },
    {
      "inputs": [
        {
          "internalType": "address",
          "name": "wallet",
          "type": "address"
        }
      ],
      "name": "addDid",
      "outputs": [],
      "stateMutability": "nonpayable",
      "type": "function"
    },
    {
      "inputs": [
        {
          "internalType": "address",
          "name": "wallet",
          "type": "address"
        },
        {
          "internalType": "uint256",
          "name": "registrarId",
          "type": "uint256"
        }
      ],
      "name": "addRegistrar",
      "outputs": [],
      "stateMutability": "nonpayable",
      "type": "function"
    },
    {
      "inputs": [
        {
          "internalType": "address",
          "name": "wallet",
          "type": "address"
        },
        {
          "internalType": "string",
          "name": "identifier",
          "type": "string"
        }
      ],
      "name": "getIdentifier",
      "outputs": [],
      "stateMutability": "nonpayable",
      "type": "function"
    },
    {
      "inputs": [
        {
          "internalType": "address",
          "name": "wallet",
          "type": "address"
        }
      ],
      "name": "getRegistrar",
      "outputs": [
        {
          "internalType": "uint256",
          "name": "",
          "type": "uint256"
        }
      ],
      "stateMutability": "view",
      "type": "function"
    },
    {
      "inputs": [
        {
          "internalType": "address",
          "name": "allowed",
          "type": "address"
        },
        {
          "internalType": "string[]",
          "name": "identifiers",
          "type": "string[]"
        }
      ],
      "name": "grantAccess",
      "outputs": [],
      "stateMutability": "nonpayable",
      "type": "function"
    },
    {
      "inputs": [],
      "name": "owner",
      "outputs": [
        {
          "internalType": "address",
          "name": "",
          "type": "address"
        }
      ],
      "stateMutability": "view",
      "type": "function"
    },
    {
      "inputs": [],
      "name": "pendingOwner",
      "outputs": [
        {
          "internalType": "address",
          "name": "",
          "type": "address"
        }
      ],
      "stateMutability": "view",
      "type": "function"
    },
    {
      "inputs": [
        {
          "internalType": "address",
          "name": "",
          "type": "address"
        }
      ],
      "name": "registrars",
      "outputs": [
        {
          "internalType": "uint256",
          "name": "",
          "type": "uint256"
        }
      ],
      "stateMutability": "view",
      "type": "function"
    },
    {
      "inputs": [
        {
          "internalType": "address",
          "name": "wallet",
          "type": "address"
        }
      ],
      "name": "removeDid",
      "outputs": [],
      "stateMutability": "nonpayable",
      "type": "function"
    },
    {
      "inputs": [
        {
          "internalType": "address",
          "name": "wallet",
          "type": "address"
        }
      ],
      "name": "removeRegistrar",
      "outputs": [],
      "stateMutability": "nonpayable",
      "type": "function"
    },
    {
      "inputs": [],
      "name": "renounceOwnership",
      "outputs": [],
      "stateMutability": "nonpayable",
      "type": "function"
    },
    {
      "inputs": [
        {
          "internalType": "address",
          "name": "allowed",
          "type": "address"
        },
        {
          "internalType": "string[]",
          "name": "identifiers",
          "type": "string[]"
        }
      ],
      "name": "revokeAccess",
      "outputs": [],
      "stateMutability": "nonpayable",
      "type": "function"
    },
    {
      "inputs": [
        {
          "internalType": "address",
          "name": "wallet",
          "type": "address"
        },
        {
          "internalType": "string",
          "name": "identifier",
          "type": "string"
        },
        {
          "components": [
            {
              "internalType": "ctUint64",
              "name": "ciphertext",
              "type": "uint256"
            },
            {
              "internalType": "bytes",
              "name": "signature",
              "type": "bytes"
            }
          ],
          "internalType": "struct itUint64",
          "name": "itValue",
          "type": "tuple"
        }
      ],
      "name": "setIdentifier",
      "outputs": [],
      "stateMutability": "nonpayable",
      "type": "function"
    },
    {
      "inputs": [
        {
          "internalType": "address",
          "name": "newOwner",
          "type": "address"
        }
      ],
      "name": "transferOwnership",
      "outputs": [],
      "stateMutability": "nonpayable",
      "type": "function"
    }
  ],
  "bytecode": "0x608060405234801561001057600080fd5b50338061003757604051631e4fbdf760e01b81526000600482015260240160405180910390fd5b61004081610046565b506100b2565b600180546001600160a01b031916905561005f81610062565b50565b600080546001600160a01b038381166001600160a01b0319831681178455604051919092169283917f8be0079c531659141344cd1fd0a4f28419497f9722a3daafe3b4186f6b6457e09190a35050565b6119d6806100c16000396000f3fe608060405234801561001057600080fd5b50600436106100f55760003560e01c80638da5cb5b11610097578063ba904eed11610066578063ba904eed146101ff578063e30c397814610212578063f2fde38b14610223578063f9ce73a71461023657600080fd5b80638da5cb5b1461018b57806393775a68146101b057806395cf57b0146101c35780639e3e9119146101d657600080fd5b806379ba5097116100d357806379ba50971461012a57806389aeca76146101325780638c9d677e146101655780638cc562b11461017857600080fd5b80632dc27e45146100fa578063715018a61461010f57806372d1282614610117575b600080fd5b61010d6101083660046113a9565b610249565b005b61010d6102a2565b61010d610125366004611428565b6102b6565b61010d610402565b610152610140366004611428565b60026020526000908152604090205481565b6040519081526020015b60405180910390f35b61010d610173366004611443565b61045f565b61010d610186366004611428565b610508565b6000546001600160a01b03165b6040516001600160a01b03909116815260200161015c565b61010d6101be36600461146d565b61080b565b61010d6101d13660046114f3565b61089d565b6101526101e4366004611428565b6001600160a01b031660009081526003602052604090205490565b61010d61020d366004611428565b610a96565b6001546001600160a01b0316610198565b61010d610231366004611428565b610b55565b61010d61024436600461146d565b610bd3565b61029c8484848080601f016020809104026020016040519081016040528093929190818152602001838380828437600092019190915250610297925061029291508690506115b6565b610c68565b610cfe565b50505050565b6102aa611068565b6102b460006110ae565b565b336000908152600260205260409020546103175760405162461bcd60e51b815260206004820152601660248201527f596f75277265206e6f742061207265676973747261720000000000000000000060448201526064015b60405180910390fd5b6001600160a01b038116600090815260036020526040902054156103a35760405162461bcd60e51b815260206004820152602160248201527f546869732077616c6c657420697320616c72656164792072656769737465726560448201527f6400000000000000000000000000000000000000000000000000000000000000606482015260840161030e565b6001600160a01b038116600081815260036020908152604080832033845260028352928190205483555192835290917f1a7870413a438c7a203315009a595fc3d575dee97c4a3e1df73ce689bebffb1191015b60405180910390a15050565b60015433906001600160a01b03168114610453576040517f118cdaa70000000000000000000000000000000000000000000000000000000081526001600160a01b038216600482015260240161030e565b61045c816110ae565b50565b610467611068565b600081116104b75760405162461bcd60e51b815260206004820152601b60248201527f7265676973747261724964206e6565647320746f206265203e20300000000000604482015260640161030e565b6001600160a01b038216600081815260026020908152604091829020849055815192835282018390527f7a646a63968ac3a621a7656c4b1542cae70e30dbdd3b947c38d8da7bb55f13b191016103f6565b6001600160a01b038116600090815260036020526040902054819061056f5760405162461bcd60e51b815260206004820152601c60248201527f546869732077616c6c65742069736e2774207265676973746572656400000000604482015260640161030e565b336000908152600260209081526040808320546001600160a01b0386168452600390925290912054839190811461060e5760405162461bcd60e51b815260206004820152602160248201527f596f75277265206e6f74206d616e6167696e672074686973206964656e74697460448201527f7900000000000000000000000000000000000000000000000000000000000000606482015260840161030e565b6001600160a01b038416600090815260036020908152604080832060020180548251818502810185019093528083529192909190849084015b828210156106f35783829060005260206000200180546106669061165b565b80601f01602080910402602001604051908101604052809291908181526020018280546106929061165b565b80156106df5780601f106106b4576101008083540402835291602001916106df565b820191906000526020600020905b8154815290600101906020018083116106c257829003601f168201915b505050505081526020019060010190610647565b5050825192935060009150505b8181101561078b5761071a61071560006110d4565b611128565b60036000896001600160a01b03166001600160a01b0316815260200190815260200160002060010184838151811061075457610754611695565b602002602001015160405161076991906116cf565b908152604051908190036020019020558061078381611701565b915050610700565b506001600160a01b0386166000908152600360205260408120818155906107b560028301826112bf565b50506040516001600160a01b03871681527f377ccce6b58db67dd71f2bf83dd5ae78a6d065428299d793fbbdaadadcd31989906020015b60405180910390a1505050505050565b6000546001600160a01b031690565b60005b8181101561029c573360009081526004602090815260408083206001600160a01b0388168452909152812084848481811061084b5761084b611695565b905060200281019061085d919061171b565b60405161086b929190611780565b908152604051908190036020019020805491151560ff199092169190911790558061089581611701565b91505061080e565b6001600160a01b03831660009081526003602052604090205483906109045760405162461bcd60e51b815260206004820152601c60248201527f546869732077616c6c65742069736e2774207265676973746572656400000000604482015260640161030e565b8383838080601f01602080910402602001604051908101604052809392919081815260200183838082843760009201919091525033925061094791506107fc9050565b6001600160a01b0316148061099d57506001600160a01b03821660009081526004602090815260408083203384529091529081902090516109899083906116cf565b9081526040519081900360200190205460ff165b610a0f5760405162461bcd60e51b815260206004820152603a60248201527f55736572206469646e2774206769766520796f75207065726d697373696f6e2060448201527f746f206163636573732074686973206964656e7469666965722e000000000000606482015260840161030e565b7fc5f16b039bb1e92bc3b203503c45eac747c4cf6de3a0f4b990345b8eeadb450c610a88610a82600360008a6001600160a01b03166001600160a01b031681526020019081526020016000206001018888604051610a6e929190611780565b908152602001604051809103902054611182565b33611192565b6040519081526020016107ec565b610a9e611068565b6001600160a01b038116600090815260026020526040902054610b035760405162461bcd60e51b815260206004820152601760248201527f77616c6c6574206973206e6f7420726567697374726172000000000000000000604482015260640161030e565b6001600160a01b03811660008181526002602090815260408083209290925590519182527fd7bddddcf89432d764b94c1529db734041d1dc33838e7f989d7e12302f09d10a910160405180910390a150565b610b5d611068565b600180546001600160a01b03831673ffffffffffffffffffffffffffffffffffffffff199091168117909155610b9b6000546001600160a01b031690565b6001600160a01b03167f38d16b8cac22d99fc7c124b9cd0de2d3fa1faef420bfe791d8c362d765e2270060405160405180910390a350565b60005b8181101561029c573360009081526004602090815260408083206001600160a01b03881684529091529020600190848484818110610c1657610c16611695565b9050602002810190610c28919061171b565b604051610c36929190611780565b908152604051908190036020019020805491151560ff1990921691909117905580610c6081611701565b915050610bd6565b805160208201516040517fe4f36e1000000000000000000000000000000000000000000000000000000000815260009260649263e4f36e1092610cb592600160fa1b929091600401611790565b6020604051808303816000875af1158015610cd4573d6000803e3d6000fd5b505050506040513d601f19601f82011682018060405250810190610cf891906117f3565b92915050565b6001600160a01b0383166000908152600360205260409020548390610d655760405162461bcd60e51b815260206004820152601c60248201527f546869732077616c6c65742069736e2774207265676973746572656400000000604482015260640161030e565b336000908152600260209081526040808320546001600160a01b03881684526003909252909120548591908114610e045760405162461bcd60e51b815260206004820152602160248201527f596f75277265206e6f74206d616e6167696e672074686973206964656e74697460448201527f7900000000000000000000000000000000000000000000000000000000000000606482015260840161030e565b610e0d84611128565b60036000886001600160a01b03166001600160a01b0316815260200190815260200160002060010186604051610e4391906116cf565b908152604080519182900360209081018320939093556001600160a01b0389166000908152600384528181206002018054808602850186019093528284529093909190849084015b82821015610f37578382906000526020600020018054610eaa9061165b565b80601f0160208091040260200160405190810160405280929190818152602001828054610ed69061165b565b8015610f235780601f10610ef857610100808354040283529160200191610f23565b820191906000526020600020905b815481529060010190602001808311610f0657829003601f168201915b505050505081526020019060010190610e8b565b5050825192935060009150505b81811015610fcb578780519060200120600360008b6001600160a01b03166001600160a01b031681526020019081526020016000206002018281548110610f8d57610f8d611695565b90600052602060002001604051610fa4919061180c565b604051809103902003610fb957505050611060565b80610fc381611701565b915050610f44565b506014610fd9826001611882565b11156110275760405162461bcd60e51b815260206004820152601460248201527f546f6f206d616e79206964656e74696669657273000000000000000000000000604482015260640161030e565b6001600160a01b03881660009081526003602090815260408220600201805460018101825590835291200161105c88826118e0565b5050505b505050505050565b6000546001600160a01b031633146102b4576040517f118cdaa700000000000000000000000000000000000000000000000000000000815233600482015260240161030e565b6001805473ffffffffffffffffffffffffffffffffffffffff1916905561045c81611262565b6040517fd9b60b60000000000000000000000000000000000000000000000000000000008152600160fa1b600482015267ffffffffffffffff8216602482015260009060649063d9b60b6090604401610cb5565b6000606463c50c9c0260045b60f81b846040518363ffffffff1660e01b8152600401610cb59291907fff00000000000000000000000000000000000000000000000000000000000000929092168252602082015260400190565b6000606463d2c135e56004611134565b60408051606083901b7fffffffffffffffffffffffffffffffffffffffff0000000000000000000000001660208201528151601481830301815260348201928390527f3c6f0e6800000000000000000000000000000000000000000000000000000000909252600091606491633c6f0e689161121891600160fa1b918891603801611790565b6020604051808303816000875af1158015611237573d6000803e3d6000fd5b505050506040513d601f19601f8201168201806040525081019061125b91906117f3565b9392505050565b600080546001600160a01b0383811673ffffffffffffffffffffffffffffffffffffffff19831681178455604051919092169283917f8be0079c531659141344cd1fd0a4f28419497f9722a3daafe3b4186f6b6457e09190a35050565b508054600082559060005260206000209081019061045c91905b808211156112f65760006112ed82826112fa565b506001016112d9565b5090565b5080546113069061165b565b6000825580601f10611316575050565b601f01602090049060005260206000209081019061045c91905b808211156112f65760008155600101611330565b80356001600160a01b038116811461135b57600080fd5b919050565b60008083601f84011261137257600080fd5b50813567ffffffffffffffff81111561138a57600080fd5b6020830191508360208285010111156113a257600080fd5b9250929050565b600080600080606085870312156113bf57600080fd5b6113c885611344565b9350602085013567ffffffffffffffff808211156113e557600080fd5b6113f188838901611360565b9095509350604087013591508082111561140a57600080fd5b5085016040818803121561141d57600080fd5b939692955090935050565b60006020828403121561143a57600080fd5b61125b82611344565b6000806040838503121561145657600080fd5b61145f83611344565b946020939093013593505050565b60008060006040848603121561148257600080fd5b61148b84611344565b9250602084013567ffffffffffffffff808211156114a857600080fd5b818601915086601f8301126114bc57600080fd5b8135818111156114cb57600080fd5b8760208260051b85010111156114e057600080fd5b6020830194508093505050509250925092565b60008060006040848603121561150857600080fd5b61151184611344565b9250602084013567ffffffffffffffff81111561152d57600080fd5b61153986828701611360565b9497909650939450505050565b634e487b7160e01b600052604160045260246000fd5b6040805190810167ffffffffffffffff8111828210171561157f5761157f611546565b60405290565b604051601f8201601f1916810167ffffffffffffffff811182821017156115ae576115ae611546565b604052919050565b6000604082360312156115c857600080fd5b6115d061155c565b8235815260208084013567ffffffffffffffff808211156115f057600080fd5b9085019036601f83011261160357600080fd5b81358181111561161557611615611546565b61162784601f19601f84011601611585565b9150808252368482850101111561163d57600080fd5b80848401858401376000908201840152918301919091525092915050565b600181811c9082168061166f57607f821691505b60208210810361168f57634e487b7160e01b600052602260045260246000fd5b50919050565b634e487b7160e01b600052603260045260246000fd5b60005b838110156116c65781810151838201526020016116ae565b50506000910152565b600082516116e18184602087016116ab565b9190910192915050565b634e487b7160e01b600052601160045260246000fd5b60006000198203611714576117146116eb565b5060010190565b60008083357fffffffffffffffffffffffffffffffffffffffffffffffffffffffffffffffe184360301811261175057600080fd5b83018035915067ffffffffffffffff82111561176b57600080fd5b6020019150368190038213156113a257600080fd5b8183823760009101908152919050565b7fff000000000000000000000000000000000000000000000000000000000000008416815282602082015260606040820152600082518060608401526117dd8160808501602087016116ab565b601f01601f191691909101608001949350505050565b60006020828403121561180557600080fd5b5051919050565b600080835461181a8161165b565b60018281168015611832576001811461184757611876565b60ff1984168752821515830287019450611876565b8760005260208060002060005b8581101561186d5781548a820152908401908201611854565b50505082870194505b50929695505050505050565b80820180821115610cf857610cf86116eb565b601f8211156118db57600081815260208120601f850160051c810160208610156118bc5750805b601f850160051c820191505b81811015611060578281556001016118c8565b505050565b815167ffffffffffffffff8111156118fa576118fa611546565b61190e81611908845461165b565b84611895565b602080601f831160018114611943576000841561192b5750858301515b600019600386901b1c1916600185901b178555611060565b600085815260208120601f198616915b8281101561197257888601518255948401946001909101908401611953565b50858210156119905787850151600019600388901b60f8161c191681555b5050505050600190811b0190555056fea264697066735822122013edf1ac3d59d6b74d1b314c7e9429c2ceb1b1bbc973e8e71d9182434bb906f164736f6c63430008140033",
  "linkReferences": {},
  "deployedLinkReferences": {}
}