{
  "_format": "hh-sol-artifact-1",
  "contractName": "CommunityLocker",
  "sourceName": "contracts/schain/CommunityLocker.sol",
  "abi": [
    {
      "anonymous": false,
      "inputs": [
        {
          "indexed": false,
          "internalType": "bytes32",
          "name": "schainHash",
          "type": "bytes32"
        },
        {
          "indexed": false,
          "internalType": "address",
          "name": "user",
          "type": "address"
        }
      ],
      "name": "ActivateUser",
      "type": "event"
    },
    {
      "anonymous": false,
      "inputs": [
        {
          "indexed": true,
          "internalType": "bytes32",
          "name": "constantHash",
          "type": "bytes32"
        },
        {
          "indexed": false,
          "internalType": "uint256",
          "name": "previousValue",
          "type": "uint256"
        },
        {
          "indexed": false,
          "internalType": "uint256",
          "name": "newValue",
          "type": "uint256"
        }
      ],
      "name": "ConstantUpdated",
      "type": "event"
    },
    {
      "anonymous": false,
      "inputs": [
        {
          "indexed": false,
          "internalType": "uint8",
          "name": "version",
          "type": "uint8"
        }
      ],
      "name": "Initialized",
      "type": "event"
    },
    {
      "anonymous": false,
      "inputs": [
        {
          "indexed": false,
          "internalType": "bytes32",
          "name": "schainHash",
          "type": "bytes32"
        },
        {
          "indexed": false,
          "internalType": "address",
          "name": "user",
          "type": "address"
        }
      ],
      "name": "LockUser",
      "type": "event"
    },
    {
      "anonymous": false,
      "inputs": [
        {
          "indexed": true,
          "internalType": "bytes32",
          "name": "role",
          "type": "bytes32"
        },
        {
          "indexed": true,
          "internalType": "bytes32",
          "name": "previousAdminRole",
          "type": "bytes32"
        },
        {
          "indexed": true,
          "internalType": "bytes32",
          "name": "newAdminRole",
          "type": "bytes32"
        }
      ],
      "name": "RoleAdminChanged",
      "type": "event"
    },
    {
      "anonymous": false,
      "inputs": [
        {
          "indexed": true,
          "internalType": "bytes32",
          "name": "role",
          "type": "bytes32"
        },
        {
          "indexed": true,
          "internalType": "address",
          "name": "account",
          "type": "address"
        },
        {
          "indexed": true,
          "internalType": "address",
          "name": "sender",
          "type": "address"
        }
      ],
      "name": "RoleGranted",
      "type": "event"
    },
    {
      "anonymous": false,
      "inputs": [
        {
          "indexed": true,
          "internalType": "bytes32",
          "name": "role",
          "type": "bytes32"
        },
        {
          "indexed": true,
          "internalType": "address",
          "name": "account",
          "type": "address"
        },
        {
          "indexed": true,
          "internalType": "address",
          "name": "sender",
          "type": "address"
        }
      ],
      "name": "RoleRevoked",
      "type": "event"
    },
    {
      "inputs": [],
      "name": "CONSTANT_SETTER_ROLE",
      "outputs": [
        {
          "internalType": "bytes32",
          "name": "",
          "type": "bytes32"
        }
      ],
      "stateMutability": "view",
      "type": "function"
    },
    {
      "inputs": [],
      "name": "DEFAULT_ADMIN_ROLE",
      "outputs": [
        {
          "internalType": "bytes32",
          "name": "",
          "type": "bytes32"
        }
      ],
      "stateMutability": "view",
      "type": "function"
    },
    {
      "inputs": [],
      "name": "MAINNET_HASH",
      "outputs": [
        {
          "internalType": "bytes32",
          "name": "",
          "type": "bytes32"
        }
      ],
      "stateMutability": "view",
      "type": "function"
    },
    {
      "inputs": [],
      "name": "MAINNET_NAME",
      "outputs": [
        {
          "internalType": "string",
          "name": "",
          "type": "string"
        }
      ],
      "stateMutability": "view",
      "type": "function"
    },
    {
      "inputs": [
        {
          "internalType": "address",
          "name": "",
          "type": "address"
        }
      ],
      "name": "activeUsers",
      "outputs": [
        {
          "internalType": "bool",
          "name": "",
          "type": "bool"
        }
      ],
      "stateMutability": "view",
      "type": "function"
    },
    {
      "inputs": [
        {
          "internalType": "bytes32",
          "name": "chainHash",
          "type": "bytes32"
        },
        {
          "internalType": "address",
          "name": "receiver",
          "type": "address"
        }
      ],
      "name": "checkAllowedToSendMessage",
      "outputs": [],
      "stateMutability": "nonpayable",
      "type": "function"
    },
    {
      "inputs": [],
      "name": "communityPool",
      "outputs": [
        {
          "internalType": "address",
          "name": "",
          "type": "address"
        }
      ],
      "stateMutability": "view",
      "type": "function"
    },
    {
      "inputs": [],
      "name": "gasPriceTimestamp",
      "outputs": [
        {
          "internalType": "uint256",
          "name": "",
          "type": "uint256"
        }
      ],
      "stateMutability": "view",
      "type": "function"
    },
    {
      "inputs": [
        {
          "internalType": "bytes32",
          "name": "role",
          "type": "bytes32"
        }
      ],
      "name": "getRoleAdmin",
      "outputs": [
        {
          "internalType": "bytes32",
          "name": "",
          "type": "bytes32"
        }
      ],
      "stateMutability": "view",
      "type": "function"
    },
    {
      "inputs": [
        {
          "internalType": "bytes32",
          "name": "role",
          "type": "bytes32"
        },
        {
          "internalType": "uint256",
          "name": "index",
          "type": "uint256"
        }
      ],
      "name": "getRoleMember",
      "outputs": [
        {
          "internalType": "address",
          "name": "",
          "type": "address"
        }
      ],
      "stateMutability": "view",
      "type": "function"
    },
    {
      "inputs": [
        {
          "internalType": "bytes32",
          "name": "role",
          "type": "bytes32"
        }
      ],
      "name": "getRoleMemberCount",
      "outputs": [
        {
          "internalType": "uint256",
          "name": "",
          "type": "uint256"
        }
      ],
      "stateMutability": "view",
      "type": "function"
    },
    {
      "inputs": [
        {
          "internalType": "bytes32",
          "name": "role",
          "type": "bytes32"
        },
        {
          "internalType": "address",
          "name": "account",
          "type": "address"
        }
      ],
      "name": "grantRole",
      "outputs": [],
      "stateMutability": "nonpayable",
      "type": "function"
    },
    {
      "inputs": [
        {
          "internalType": "bytes32",
          "name": "role",
          "type": "bytes32"
        },
        {
          "internalType": "address",
          "name": "account",
          "type": "address"
        }
      ],
      "name": "hasRole",
      "outputs": [
        {
          "internalType": "bool",
          "name": "",
          "type": "bool"
        }
      ],
      "stateMutability": "view",
      "type": "function"
    },
    {
      "inputs": [
        {
          "internalType": "string",
          "name": "newSchainName",
          "type": "string"
        },
        {
          "internalType": "contract IMessageProxyForSchain",
          "name": "newMessageProxy",
          "type": "address"
        },
        {
          "internalType": "contract ITokenManagerLinker",
          "name": "newTokenManagerLinker",
          "type": "address"
        },
        {
          "internalType": "address",
          "name": "newCommunityPool",
          "type": "address"
        }
      ],
      "name": "initialize",
      "outputs": [],
      "stateMutability": "nonpayable",
      "type": "function"
    },
    {
      "inputs": [],
      "name": "initializeTimestamp",
      "outputs": [],
      "stateMutability": "nonpayable",
      "type": "function"
    },
    {
      "inputs": [
        {
          "internalType": "address",
          "name": "",
          "type": "address"
        }
      ],
      "name": "lastMessageTimeStamp",
      "outputs": [
        {
          "internalType": "uint256",
          "name": "",
          "type": "uint256"
        }
      ],
      "stateMutability": "view",
      "type": "function"
    },
    {
      "inputs": [
        {
          "internalType": "bytes32",
          "name": "",
          "type": "bytes32"
        },
        {
          "internalType": "address",
          "name": "",
          "type": "address"
        }
      ],
      "name": "lastMessageTimeStampToSchain",
      "outputs": [
        {
          "internalType": "uint256",
          "name": "",
          "type": "uint256"
        }
      ],
      "stateMutability": "view",
      "type": "function"
    },
    {
      "inputs": [],
      "name": "mainnetGasPrice",
      "outputs": [
        {
          "internalType": "uint256",
          "name": "",
          "type": "uint256"
        }
      ],
      "stateMutability": "view",
      "type": "function"
    },
    {
      "inputs": [],
      "name": "messageProxy",
      "outputs": [
        {
          "internalType": "contract IMessageProxyForSchain",
          "name": "",
          "type": "address"
        }
      ],
      "stateMutability": "view",
      "type": "function"
    },
    {
      "inputs": [
        {
          "internalType": "bytes32",
          "name": "fromChainHash",
          "type": "bytes32"
        },
        {
          "internalType": "address",
          "name": "sender",
          "type": "address"
        },
        {
          "internalType": "bytes",
          "name": "data",
          "type": "bytes"
        }
      ],
      "name": "postMessage",
      "outputs": [],
      "stateMutability": "nonpayable",
      "type": "function"
    },
    {
      "inputs": [
        {
          "internalType": "bytes32",
          "name": "role",
          "type": "bytes32"
        },
        {
          "internalType": "address",
          "name": "account",
          "type": "address"
        }
      ],
      "name": "renounceRole",
      "outputs": [],
      "stateMutability": "nonpayable",
      "type": "function"
    },
    {
      "inputs": [
        {
          "internalType": "bytes32",
          "name": "role",
          "type": "bytes32"
        },
        {
          "internalType": "address",
          "name": "account",
          "type": "address"
        }
      ],
      "name": "revokeRole",
      "outputs": [],
      "stateMutability": "nonpayable",
      "type": "function"
    },
    {
      "inputs": [],
      "name": "schainHash",
      "outputs": [
        {
          "internalType": "bytes32",
          "name": "",
          "type": "bytes32"
        }
      ],
      "stateMutability": "view",
      "type": "function"
    },
    {
      "inputs": [
        {
          "internalType": "uint256",
          "name": "gasPrice",
          "type": "uint256"
        },
        {
          "internalType": "uint256",
          "name": "timestamp",
          "type": "uint256"
        },
        {
          "components": [
            {
              "internalType": "uint256[2]",
              "name": "blsSignature",
              "type": "uint256[2]"
            },
            {
              "internalType": "uint256",
              "name": "hashA",
              "type": "uint256"
            },
            {
              "internalType": "uint256",
              "name": "hashB",
              "type": "uint256"
            },
            {
              "internalType": "uint256",
              "name": "counter",
              "type": "uint256"
            }
          ],
          "internalType": "struct IMessageProxy.Signature",
          "name": "",
          "type": "tuple"
        }
      ],
      "name": "setGasPrice",
      "outputs": [],
      "stateMutability": "nonpayable",
      "type": "function"
    },
    {
      "inputs": [
        {
          "internalType": "string",
          "name": "chainName",
          "type": "string"
        },
        {
          "internalType": "uint256",
          "name": "newTimeLimitPerMessage",
          "type": "uint256"
        }
      ],
      "name": "setTimeLimitPerMessage",
      "outputs": [],
      "stateMutability": "nonpayable",
      "type": "function"
    },
    {
      "inputs": [
        {
          "internalType": "bytes4",
          "name": "interfaceId",
          "type": "bytes4"
        }
      ],
      "name": "supportsInterface",
      "outputs": [
        {
          "internalType": "bool",
          "name": "",
          "type": "bool"
        }
      ],
      "stateMutability": "view",
      "type": "function"
    },
    {
      "inputs": [
        {
          "internalType": "bytes32",
          "name": "",
          "type": "bytes32"
        }
      ],
      "name": "timeLimitPerMessage",
      "outputs": [
        {
          "internalType": "uint256",
          "name": "",
          "type": "uint256"
        }
      ],
      "stateMutability": "view",
      "type": "function"
    },
    {
      "inputs": [],
      "name": "tokenManagerLinker",
      "outputs": [
        {
          "internalType": "contract ITokenManagerLinker",
          "name": "",
          "type": "address"
        }
      ],
      "stateMutability": "view",
      "type": "function"
    }
  ],
  "bytecode": "0x608060405234801561001057600080fd5b50611f06806100206000396000f3fe608060405234801561001057600080fd5b50600436106101c45760003560e01c806359315792116100f9578063bbb9267811610097578063d547741f11610071578063d547741f146103f8578063eb0eb8ab1461040b578063f0cfb52e1461042e578063f34822b41461044e57600080fd5b8063bbb92678146103ab578063bbc4e8c2146103be578063ca15c873146103e557600080fd5b80639010d07c116100d35780639010d07c1461037457806391d1485414610387578063a217fddf1461039a578063aebc4bc3146103a257600080fd5b8063593157921461033b5780637304b44d1461034e578063884cee5a1461036157600080fd5b80632f2ff15d1161016657806345ee13821161014057806345ee1382146102c25780634fe5187c146102ca57806350f44280146102f55780635573b8b61461032857600080fd5b80632f2ff15d1461029157806336568abe146102a65780633b690b6b146102b957600080fd5b8063248a9ca3116101a2578063248a9ca31461024a57806328c5e1821461026d5780632d448928146102755780632dc151de1461027e57600080fd5b806301ffc9a7146101c957806314a7eaf6146101f157806314d140b01461021f575b600080fd5b6101dc6101d736600461183e565b610461565b60405190151581526020015b60405180910390f35b6102116101ff366004611868565b60d26020526000908152604090205481565b6040519081526020016101e8565b60cb54610232906001600160a01b031681565b6040516001600160a01b0390911681526020016101e8565b610211610258366004611868565b60009081526065602052604090206001015490565b61021161048c565b61021160d15481565b60ca54610232906001600160a01b031681565b6102a461029f366004611896565b6104d5565b005b6102a46102b4366004611896565b6104ff565b61021160cc5481565b6102a4610582565b6102116102d8366004611896565b60d360209081526000928352604080842090915290825290205481565b61031b6040518060400160405280600781526020016613585a5b9b995d60ca1b81525081565b6040516101e891906118ea565b60c954610232906001600160a01b031681565b6102a4610349366004611896565b610633565b6102a461035c36600461197f565b6108e8565b6102a461036f366004611a2c565b610a1c565b610232610382366004611ab5565b610d76565b6101dc610395366004611896565b610d95565b610211600081565b61021160d05481565b6102a46103b9366004611b64565b610dc0565b6102117f96e3fc3be15159903e053027cff8a23f39a990e0194abcd8ac1cf1b355b8b93c81565b6102116103f3366004611868565b610f40565b6102a4610406366004611896565b610f57565b6101dc610419366004611ba9565b60ce6020526000908152604090205460ff1681565b61021161043c366004611ba9565b60cf6020526000908152604090205481565b6102a461045c366004611bc6565b610f7c565b60006001600160e01b03198216635a05180f60e01b14806104865750610486826111bd565b92915050565b6040518060400160405280600781526020016613585a5b9b995d60ca1b8152506040516020016104bc9190611c3b565b6040516020818303038152906040528051906020012081565b6000828152606560205260409020600101546104f0816111f2565b6104fa83836111ff565b505050565b6001600160a01b03811633146105745760405162461bcd60e51b815260206004820152602f60248201527f416363657373436f6e74726f6c3a2063616e206f6e6c792072656e6f756e636560448201526e103937b632b9903337b91039b2b63360891b60648201526084015b60405180910390fd5b61057e8282611221565b5050565b61058d600033610d95565b6105cc5760405162461bcd60e51b815260206004820152601060248201526f24b731b7b93932b1ba1039b2b73232b960811b604482015260640161056b565b60cd5460d260006040518060400160405280600781526020016613585a5b9b995d60ca1b8152506040516020016106039190611c3b565b6040516020818303038152906040528051906020012081526020019081526020016000208190555060cd60009055565b600082815260d3602090815260408083206001600160a01b03851684528252918290205482518084018452600781526613585a5b9b995d60ca1b818401529251859385936106819201611c3b565b604051602081830303815290604052805190602001208303610720576001600160a01b038216600090815260ce602052604090205460ff166107055760405162461bcd60e51b815260206004820152601860248201527f526563697069656e74206d757374206265206163746976650000000000000000604482015260640161056b565b506001600160a01b038116600090815260cf60205260409020545b600083815260d26020526040902054429061073b9083611c6d565b106107885760405162461bcd60e51b815260206004820152601b60248201527f4578636565646564206d6573736167652072617465206c696d69740000000000604482015260640161056b565b60ca546040516374a9e4c960e11b81523360048201526001600160a01b039091169063e953c99290602401602060405180830381865afa1580156107d0573d6000803e3d6000fd5b505050506040513d601f19601f820116820180604052508101906107f49190611c8e565b61084f5760405162461bcd60e51b815260206004820152602660248201527f53656e646572206973206e6f74207265676973746572656420746f6b656e206d60448201526530b730b3b2b960d11b606482015260840161056b565b6040518060400160405280600781526020016613585a5b9b995d60ca1b81525060405160200161087f9190611c3b565b6040516020818303038152906040528051906020012085036108bb576001600160a01b038416600090815260cf602052604090204290556108e1565b600085815260d3602090815260408083206001600160a01b038816845290915290204290555b5050505050565b60d15482116109455760405162461bcd60e51b815260206004820152602360248201527f4761732070726963652074696d657374616d7020616c726561647920757064616044820152621d195960ea1b606482015260840161056b565b428211156109a35760405162461bcd60e51b815260206004820152602560248201527f54696d657374616d702073686f756c64206e6f7420626520696e207468652066604482015264757475726560d81b606482015260840161056b565b6040516e4d61696e6e6574476173507269636560881b6020820152602f0160408051601f19818403018152828252805160209182012060d0548452908301869052917fd9f6bd2abae0f2a51b3f5ffb29e0e35ee9ad2e3921ede0d71bff21dc8609f6f1910160405180910390a25060d09190915560d155565b60c9546001600160a01b03163314610a765760405162461bcd60e51b815260206004820152601d60248201527f53656e646572206973206e6f742061206d6573736167652070726f7879000000604482015260640161056b565b60cb546001600160a01b03848116911614610ad35760405162461bcd60e51b815260206004820152601c60248201527f53656e646572206d75737420626520436f6d6d756e697479506f6f6c00000000604482015260640161056b565b6040518060400160405280600781526020016613585a5b9b995d60ca1b815250604051602001610b039190611c3b565b604051602081830303815290604052805190602001208414610b715760405162461bcd60e51b815260206004820152602160248201527f536f7572636520636861696e206e616d65206d757374206265204d61696e6e656044820152601d60fa1b606482015260840161056b565b6000610b7d8383611243565b9050600781600e811115610b9357610b93611cab565b14610bf45760405162461bcd60e51b815260206004820152602b60248201527f546865206d6573736167652073686f756c6420636f6e7461696e20612073746160448201526a3a3ab99037b3103ab9b2b960a91b606482015260840161056b565b6000610c00848461128e565b6040808201516020808401516001600160a01b0316600090815260ce9091529190912054919250151560ff909116151503610c8c5760405162461bcd60e51b815260206004820152602660248201527f4163746976652075736572207374617475736573206d7573742062652064696660448201526519995c995b9d60d21b606482015260840161056b565b604081810180516020808501516001600160a01b0316600090815260ce90915292909220805460ff1916921515929092179091555115610d1c577fdacccea96400d48c51a00ff7af4d1c6b6ac4909bbff0fe495f0e0edc298c3dde60cc548260200151604051610d0f9291909182526001600160a01b0316602082015260400190565b60405180910390a1610d6e565b7f01d8973c54faac85b2cfd40f935f8da4261d9883283ad73ce0e10aa91fc37bdf60cc548260200151604051610d659291909182526001600160a01b0316602082015260400190565b60405180910390a15b505050505050565b6000828152609760205260408120610d8e9083611327565b9392505050565b60009182526065602090815260408084206001600160a01b0393909316845291905290205460ff1690565b610dea7f96e3fc3be15159903e053027cff8a23f39a990e0194abcd8ac1cf1b355b8b93c33610d95565b610e455760405162461bcd60e51b815260206004820152602660248201527f4e6f7420656e6f756768207065726d697373696f6e7320746f2073657420636f6044820152651b9cdd185b9d60d21b606482015260840161056b565b600082604051602001610e589190611c3b565b60405160208183030381529060405280519060200120905060cc548103610eb35760405162461bcd60e51b815260206004820152600f60248201526e24b731b7b93932b1ba1031b430b4b760891b604482015260640161056b565b6040517254696d654c696d69745065724d65737361676560681b602082015260330160408051808303601f190181528282528051602091820120600085815260d28352839020548452908301859052917fd9f6bd2abae0f2a51b3f5ffb29e0e35ee9ad2e3921ede0d71bff21dc8609f6f1910160405180910390a2600090815260d2602052604090205550565b600081815260976020526040812061048690611333565b600082815260656020526040902060010154610f72816111f2565b6104fa8383611221565b600054610100900460ff1615808015610f9c5750600054600160ff909116105b80610fb65750303b158015610fb6575060005460ff166001145b6110195760405162461bcd60e51b815260206004820152602e60248201527f496e697469616c697a61626c653a20636f6e747261637420697320616c72656160448201526d191e481a5b9a5d1a585b1a5e995960921b606482015260840161056b565b6000805460ff19166001179055801561103c576000805461ff0019166101001790555b6001600160a01b0382166110925760405162461bcd60e51b815260206004820152601a60248201527f4e6f646520616464726573732068617320746f20626520736574000000000000604482015260640161056b565b61109a61133d565b6110a56000336113aa565b60c980546001600160a01b038087166001600160a01b03199283161790925560ca8054928616929091169190911790556040516110e6908690602001611c3b565b60408051601f19818403018152828252805160209182012060cc558282018252600783526613585a5b9b995d60ca1b83820152905161012c9260d292600092611130929101611c3b565b60408051808303601f190181529181528151602092830120835290820192909252016000205560cb80546001600160a01b0319166001600160a01b03841617905580156108e1576000805461ff0019169055604051600181527f7f26b83ff96e1f2b6a682f133852f6798a09c465da95921460cefb38474024989060200160405180910390a15050505050565b60006001600160e01b03198216637965db0b60e01b148061048657506301ffc9a760e01b6001600160e01b0319831614610486565b6111fc81336113b4565b50565b611209828261140d565b60008281526097602052604090206104fa9082611493565b61122b82826114a8565b60008281526097602052604090206104fa908261150f565b60008061125283850185611868565b905061125f602082611cc1565b6000036112825761127a61127584838188611ce3565b611243565b915050610486565b61127a83850185611d21565b604080516080810182526000606082018181528252602082018190529181019190915260076112bd8484611243565b600e8111156112ce576112ce611cab565b1461131b5760405162461bcd60e51b815260206004820152601f60248201527f4d6573736167652074797065206973206e6f7420557365722053746174757300604482015260640161056b565b610d8e82840184611d3c565b6000610d8e8383611524565b6000610486825490565b600054610100900460ff166113a85760405162461bcd60e51b815260206004820152602b60248201527f496e697469616c697a61626c653a20636f6e7472616374206973206e6f74206960448201526a6e697469616c697a696e6760a81b606482015260840161056b565b565b61057e82826111ff565b6113be8282610d95565b61057e576113cb8161154e565b6113d6836020611560565b6040516020016113e7929190611de6565b60408051601f198184030181529082905262461bcd60e51b825261056b916004016118ea565b6114178282610d95565b61057e5760008281526065602090815260408083206001600160a01b03851684529091529020805460ff1916600117905561144f3390565b6001600160a01b0316816001600160a01b0316837f2f8788117e7eff1d82e926ec794901d17c78024a50270940304540a733656f0d60405160405180910390a45050565b6000610d8e836001600160a01b0384166116fc565b6114b28282610d95565b1561057e5760008281526065602090815260408083206001600160a01b0385168085529252808320805460ff1916905551339285917ff6391f5c32d9c69d2a47ea670b442974b53935d1edc7fd64eb21e047a839171b9190a45050565b6000610d8e836001600160a01b03841661174b565b600082600001828154811061153b5761153b611e5b565b9060005260206000200154905092915050565b60606104866001600160a01b03831660145b6060600061156f836002611e71565b61157a906002611c6d565b67ffffffffffffffff8111156115925761159261191d565b6040519080825280601f01601f1916602001820160405280156115bc576020820181803683370190505b509050600360fc1b816000815181106115d7576115d7611e5b565b60200101906001600160f81b031916908160001a905350600f60fb1b8160018151811061160657611606611e5b565b60200101906001600160f81b031916908160001a905350600061162a846002611e71565b611635906001611c6d565b90505b60018111156116ad576f181899199a1a9b1b9c1cb0b131b232b360811b85600f166010811061166957611669611e5b565b1a60f81b82828151811061167f5761167f611e5b565b60200101906001600160f81b031916908160001a90535060049490941c936116a681611e90565b9050611638565b508315610d8e5760405162461bcd60e51b815260206004820181905260248201527f537472696e67733a20686578206c656e67746820696e73756666696369656e74604482015260640161056b565b600081815260018301602052604081205461174357508154600181810184556000848152602080822090930184905584548482528286019093526040902091909155610486565b506000610486565b6000818152600183016020526040812054801561183457600061176f600183611ea7565b855490915060009061178390600190611ea7565b90508181146117e85760008660000182815481106117a3576117a3611e5b565b90600052602060002001549050808760000184815481106117c6576117c6611e5b565b6000918252602080832090910192909255918252600188019052604090208390555b85548690806117f9576117f9611eba565b600190038181906000526020600020016000905590558560010160008681526020019081526020016000206000905560019350505050610486565b6000915050610486565b60006020828403121561185057600080fd5b81356001600160e01b031981168114610d8e57600080fd5b60006020828403121561187a57600080fd5b5035919050565b6001600160a01b03811681146111fc57600080fd5b600080604083850312156118a957600080fd5b8235915060208301356118bb81611881565b809150509250929050565b60005b838110156118e15781810151838201526020016118c9565b50506000910152565b60208152600082518060208401526119098160408501602087016118c6565b601f01601f19169190910160400192915050565b634e487b7160e01b600052604160045260246000fd5b6040516080810167ffffffffffffffff811182821017156119565761195661191d565b60405290565b6040805190810167ffffffffffffffff811182821017156119565761195661191d565b600080600083850360e081121561199557600080fd5b84359350602080860135935060a0603f19830112156119b357600080fd5b6119bb611933565b915086605f8701126119cc57600080fd5b6119d461195c565b8060808801898111156119e657600080fd5b604089015b81811015611a0257803584529284019284016119eb565b5090845235918301919091525060a0850135604082015260c0909401356060850152509093909250565b60008060008060608587031215611a4257600080fd5b843593506020850135611a5481611881565b9250604085013567ffffffffffffffff80821115611a7157600080fd5b818701915087601f830112611a8557600080fd5b813581811115611a9457600080fd5b886020828501011115611aa657600080fd5b95989497505060200194505050565b60008060408385031215611ac857600080fd5b50508035926020909101359150565b600082601f830112611ae857600080fd5b813567ffffffffffffffff80821115611b0357611b0361191d565b604051601f8301601f19908116603f01168101908282118183101715611b2b57611b2b61191d565b81604052838152866020858801011115611b4457600080fd5b836020870160208301376000602085830101528094505050505092915050565b60008060408385031215611b7757600080fd5b823567ffffffffffffffff811115611b8e57600080fd5b611b9a85828601611ad7565b95602094909401359450505050565b600060208284031215611bbb57600080fd5b8135610d8e81611881565b60008060008060808587031215611bdc57600080fd5b843567ffffffffffffffff811115611bf357600080fd5b611bff87828801611ad7565b9450506020850135611c1081611881565b92506040850135611c2081611881565b91506060850135611c3081611881565b939692955090935050565b60008251611c4d8184602087016118c6565b9190910192915050565b634e487b7160e01b600052601160045260246000fd5b8082018082111561048657610486611c57565b80151581146111fc57600080fd5b600060208284031215611ca057600080fd5b8151610d8e81611c80565b634e487b7160e01b600052602160045260246000fd5b600082611cde57634e487b7160e01b600052601260045260246000fd5b500690565b60008085851115611cf357600080fd5b83861115611d0057600080fd5b5050820193919092039150565b8035600f8110611d1c57600080fd5b919050565b600060208284031215611d3357600080fd5b610d8e82611d0d565b60008183036060811215611d4f57600080fd5b6040516060810167ffffffffffffffff8282108183111715611d7357611d7361191d565b816040526020841215611d8557600080fd5b6080830193508184108185111715611d9f57611d9f61191d565b5082604052611dad85611d0d565b8152815260208401359150611dc182611881565b81602082015260408401359150611dd782611c80565b60408101919091529392505050565b7f416363657373436f6e74726f6c3a206163636f756e7420000000000000000000815260008351611e1e8160178501602088016118c6565b7001034b99036b4b9b9b4b733903937b6329607d1b6017918401918201528351611e4f8160288401602088016118c6565b01602801949350505050565b634e487b7160e01b600052603260045260246000fd5b6000816000190483118215151615611e8b57611e8b611c57565b500290565b600081611e9f57611e9f611c57565b506000190190565b8181038181111561048657610486611c57565b634e487b7160e01b600052603160045260246000fdfea2646970667358221220516bbe5f4fee5375a5582e2958af00b9600e7d5703b79972ae44cb88a938fcb264736f6c63430008100033",
  "linkReferences": {},
  "deployedLinkReferences": {}
}